{
  "contractName": "Medicine",
  "abi": [
    {
      "anonymous": false,
      "inputs": [
        {
          "indexed": true,
          "internalType": "bytes32",
          "name": "productHash",
          "type": "bytes32"
        },
        {
          "indexed": false,
          "internalType": "string",
          "name": "productName",
          "type": "string"
        },
        {
          "indexed": false,
          "internalType": "string",
          "name": "manufacturingDate",
          "type": "string"
        },
        {
          "indexed": false,
          "internalType": "string",
          "name": "expiryDate",
          "type": "string"
        },
        {
          "indexed": false,
          "internalType": "string",
          "name": "formulations",
          "type": "string"
        }
      ],
      "name": "ProductRegistered",
      "type": "event"
    },
    {
      "inputs": [
        {
          "internalType": "bytes32",
          "name": "",
          "type": "bytes32"
        }
      ],
      "name": "products",
      "outputs": [
        {
          "internalType": "string",
          "name": "productName",
          "type": "string"
        },
        {
          "internalType": "string",
          "name": "manufacturingDate",
          "type": "string"
        },
        {
          "internalType": "string",
          "name": "expiryDate",
          "type": "string"
        },
        {
          "internalType": "string",
          "name": "formulations",
          "type": "string"
        }
      ],
      "stateMutability": "view",
      "type": "function"
    },
    {
      "inputs": [
        {
          "internalType": "string",
          "name": "productName",
          "type": "string"
        },
        {
          "internalType": "string",
          "name": "manufacturingDate",
          "type": "string"
        },
        {
          "internalType": "string",
          "name": "expiryDate",
          "type": "string"
        },
        {
          "internalType": "string",
          "name": "formulations",
          "type": "string"
        }
      ],
      "name": "registerProduct",
      "outputs": [
        {
          "internalType": "bytes32",
          "name": "",
          "type": "bytes32"
        }
      ],
      "stateMutability": "nonpayable",
      "type": "function"
    },
    {
      "inputs": [
        {
          "internalType": "bytes32",
          "name": "productHash",
          "type": "bytes32"
        }
      ],
      "name": "getProduct",
      "outputs": [
        {
          "internalType": "string",
          "name": "productName",
          "type": "string"
        },
        {
          "internalType": "string",
          "name": "manufacturingDate",
          "type": "string"
        },
        {
          "internalType": "string",
          "name": "expiryDate",
          "type": "string"
        },
        {
          "internalType": "string",
          "name": "formulations",
          "type": "string"
        }
      ],
      "stateMutability": "view",
      "type": "function"
    }
  ],
  "bytecode": "0x608060405234801561001057600080fd5b50610fb3806100206000396000f3fe608060405234801561001057600080fd5b50600436106100415760003560e01c80633a20e9df1461004657806379054391146100795780638799d6fc146100ac575b600080fd5b610060600480360381019061005b919061092a565b6100dc565b60405161007094939291906109f0565b60405180910390f35b610093600480360381019061008e919061092a565b6103b7565b6040516100a394939291906109f0565b60405180910390f35b6100c660048036038101906100c19190610b86565b610607565b6040516100d39190610c6c565b60405180910390f35b606080606080600080600087815260200190815260200160002060405180608001604052908160008201805461011190610cb6565b80601f016020809104026020016040519081016040528092919081815260200182805461013d90610cb6565b801561018a5780601f1061015f5761010080835404028352916020019161018a565b820191906000526020600020905b81548152906001019060200180831161016d57829003601f168201915b505050505081526020016001820180546101a390610cb6565b80601f01602080910402602001604051908101604052809291908181526020018280546101cf90610cb6565b801561021c5780601f106101f15761010080835404028352916020019161021c565b820191906000526020600020905b8154815290600101906020018083116101ff57829003601f168201915b5050505050815260200160028201805461023590610cb6565b80601f016020809104026020016040519081016040528092919081815260200182805461026190610cb6565b80156102ae5780601f10610283576101008083540402835291602001916102ae565b820191906000526020600020905b81548152906001019060200180831161029157829003601f168201915b505050505081526020016003820180546102c790610cb6565b80601f01602080910402602001604051908101604052809291908181526020018280546102f390610cb6565b80156103405780601f1061031557610100808354040283529160200191610340565b820191906000526020600020905b81548152906001019060200180831161032357829003601f168201915b5050505050815250509050600081600001515111610393576040517f08c379a000000000000000000000000000000000000000000000000000000000815260040161038a90610d33565b60405180910390fd5b80600001518160200151826040015183606001519450945094509450509193509193565b60006020528060005260406000206000915090508060000180546103da90610cb6565b80601f016020809104026020016040519081016040528092919081815260200182805461040690610cb6565b80156104535780601f1061042857610100808354040283529160200191610453565b820191906000526020600020905b81548152906001019060200180831161043657829003601f168201915b50505050509080600101805461046890610cb6565b80601f016020809104026020016040519081016040528092919081815260200182805461049490610cb6565b80156104e15780601f106104b6576101008083540402835291602001916104e1565b820191906000526020600020905b8154815290600101906020018083116104c457829003601f168201915b5050505050908060020180546104f690610cb6565b80601f016020809104026020016040519081016040528092919081815260200182805461052290610cb6565b801561056f5780601f106105445761010080835404028352916020019161056f565b820191906000526020600020905b81548152906001019060200180831161055257829003601f168201915b50505050509080600301805461058490610cb6565b80601f01602080910402602001604051908101604052809291908181526020018280546105b090610cb6565b80156105fd5780601f106105d2576101008083540402835291602001916105fd565b820191906000526020600020905b8154815290600101906020018083116105e057829003601f168201915b5050505050905084565b60008085511161064c576040517f08c379a000000000000000000000000000000000000000000000000000000000815260040161064390610d9f565b60405180910390fd5b6000845111610690576040517f08c379a000000000000000000000000000000000000000000000000000000000815260040161068790610e0b565b60405180910390fd5b60008351116106d4576040517f08c379a00000000000000000000000000000000000000000000000000000000081526004016106cb90610e77565b60405180910390fd5b6000825111610718576040517f08c379a000000000000000000000000000000000000000000000000000000000815260040161070f90610ee3565b60405180910390fd5b6000858585856040516020016107319493929190610f3f565b604051602081830303815290604052805190602001209050604051806080016040528087815260200186815260200185815260200184815250600080838152602001908152602001600020600082015181600001908051906020019061079892919061083d565b5060208201518160010190805190602001906107b592919061083d565b5060408201518160020190805190602001906107d292919061083d565b5060608201518160030190805190602001906107ef92919061083d565b50905050807fecab2dd7866f6f8942d9d7d47d57673689e675a864b11747bfea4d23f0d5d5028787878760405161082994939291906109f0565b60405180910390a280915050949350505050565b82805461084990610cb6565b90600052602060002090601f01602090048101928261086b57600085556108b2565b82601f1061088457805160ff19168380011785556108b2565b828001600101855582156108b2579182015b828111156108b1578251825591602001919060010190610896565b5b5090506108bf91906108c3565b5090565b5b808211156108dc5760008160009055506001016108c4565b5090565b6000604051905090565b600080fd5b600080fd5b6000819050919050565b610907816108f4565b811461091257600080fd5b50565b600081359050610924816108fe565b92915050565b6000602082840312156109405761093f6108ea565b5b600061094e84828501610915565b91505092915050565b600081519050919050565b600082825260208201905092915050565b60005b83811015610991578082015181840152602081019050610976565b838111156109a0576000848401525b50505050565b6000601f19601f8301169050919050565b60006109c282610957565b6109cc8185610962565b93506109dc818560208601610973565b6109e5816109a6565b840191505092915050565b60006080820190508181036000830152610a0a81876109b7565b90508181036020830152610a1e81866109b7565b90508181036040830152610a3281856109b7565b90508181036060830152610a4681846109b7565b905095945050505050565b600080fd5b600080fd5b7f4e487b7100000000000000000000000000000000000000000000000000000000600052604160045260246000fd5b610a93826109a6565b810181811067ffffffffffffffff82111715610ab257610ab1610a5b565b5b80604052505050565b6000610ac56108e0565b9050610ad18282610a8a565b919050565b600067ffffffffffffffff821115610af157610af0610a5b565b5b610afa826109a6565b9050602081019050919050565b82818337600083830152505050565b6000610b29610b2484610ad6565b610abb565b905082815260208101848484011115610b4557610b44610a56565b5b610b50848285610b07565b509392505050565b600082601f830112610b6d57610b6c610a51565b5b8135610b7d848260208601610b16565b91505092915050565b60008060008060808587031215610ba057610b9f6108ea565b5b600085013567ffffffffffffffff811115610bbe57610bbd6108ef565b5b610bca87828801610b58565b945050602085013567ffffffffffffffff811115610beb57610bea6108ef565b5b610bf787828801610b58565b935050604085013567ffffffffffffffff811115610c1857610c176108ef565b5b610c2487828801610b58565b925050606085013567ffffffffffffffff811115610c4557610c446108ef565b5b610c5187828801610b58565b91505092959194509250565b610c66816108f4565b82525050565b6000602082019050610c816000830184610c5d565b92915050565b7f4e487b7100000000000000000000000000000000000000000000000000000000600052602260045260246000fd5b60006002820490506001821680610cce57607f821691505b602082108103610ce157610ce0610c87565b5b50919050565b7f50726f6475637420646f6573206e6f7420657869737400000000000000000000600082015250565b6000610d1d601683610962565b9150610d2882610ce7565b602082019050919050565b60006020820190508181036000830152610d4c81610d10565b9050919050565b7f50726f64756374206e616d652069732072657175697265640000000000000000600082015250565b6000610d89601883610962565b9150610d9482610d53565b602082019050919050565b60006020820190508181036000830152610db881610d7c565b9050919050565b7f4d616e75666163747572696e6720646174652069732072657175697265640000600082015250565b6000610df5601e83610962565b9150610e0082610dbf565b602082019050919050565b60006020820190508181036000830152610e2481610de8565b9050919050565b7f4578706972792064617465206973207265717569726564000000000000000000600082015250565b6000610e61601783610962565b9150610e6c82610e2b565b602082019050919050565b60006020820190508181036000830152610e9081610e54565b9050919050565b7f466f726d756c6174696f6e732061726520726571756972656400000000000000600082015250565b6000610ecd601983610962565b9150610ed882610e97565b602082019050919050565b60006020820190508181036000830152610efc81610ec0565b9050919050565b600081905092915050565b6000610f1982610957565b610f238185610f03565b9350610f33818560208601610973565b80840191505092915050565b6000610f4b8287610f0e565b9150610f578286610f0e565b9150610f638285610f0e565b9150610f6f8284610f0e565b91508190509594505050505056fea2646970667358221220566eabd21c411843948989a4e9b837476a78edfbb9854354422d1d372dd4f58864736f6c634300080d0033",
  "immutableReferences": {},
  "source": "// SPDX-License-Identifier: MIT\r\npragma solidity >=0.4.22 <0.9.0;\r\n\r\ncontract Medicine {\r\n    struct Product {\r\n        string productName;\r\n        string manufacturingDate;\r\n        string expiryDate;\r\n        string formulations;\r\n    }\r\n\r\n    mapping(bytes32 => Product) public products;\r\n\r\n    // Event to notify product registration\r\n    event ProductRegistered(\r\n        bytes32 indexed productHash,\r\n        string productName,\r\n        string manufacturingDate,\r\n        string expiryDate,\r\n        string formulations\r\n    );\r\n\r\n    function registerProduct(\r\n        string memory productName,\r\n        string memory manufacturingDate,\r\n        string memory expiryDate,\r\n        string memory formulations\r\n    ) public returns(bytes32) {\r\n        // Ensure that product details are not empty\r\n        require(bytes(productName).length > 0, \"Product name is required\");\r\n        require(bytes(manufacturingDate).length > 0, \"Manufacturing date is required\");\r\n        require(bytes(expiryDate).length > 0, \"Expiry date is required\");\r\n        require(bytes(formulations).length > 0, \"Formulations are required\");\r\n\r\n        // Generate a unique hash for the product\r\n        bytes32 productHash = keccak256(abi.encodePacked(productName, manufacturingDate, expiryDate, formulations));\r\n        \r\n        // Store the product data in the mapping\r\n        products[productHash] = Product(productName, manufacturingDate, expiryDate, formulations);\r\n\r\n        // Emit event for product registration\r\n        emit ProductRegistered(productHash, productName, manufacturingDate, expiryDate, formulations);\r\n        return productHash;\r\n    }\r\n\r\n    // Function to retrieve product data\r\n    function getProduct(bytes32 productHash) public view returns (\r\n        string memory productName,\r\n        string memory manufacturingDate,\r\n        string memory expiryDate,\r\n        string memory formulations\r\n    ) {\r\n        Product memory product = products[productHash];\r\n        require(bytes(product.productName).length > 0, \"Product does not exist\");\r\n        return (\r\n            product.productName,\r\n            product.manufacturingDate,\r\n            product.expiryDate,\r\n            product.formulations\r\n        );\r\n    }\r\n}\r\n",
  "sourcePath": "C:\\REACT PROJECTS\\FullStack_react\\truffledir\\contracts\\Medicine.sol",
  "compiler": {
    "name": "solc",
    "version": "0.8.13+commit.abaa5c0e.Emscripten.clang"
  },
  "schemaVersion": "3.4.16",
  "updatedAt": "2024-10-13T14:09:23.196Z",
  "devdoc": {
    "kind": "dev",
    "methods": {},
    "version": 1
  },
  "userdoc": {
    "kind": "user",
    "methods": {},
    "version": 1
  }
}