{
  "contractName": "SimpleContract",
  "abi": [
    {
      "inputs": [],
      "name": "count",
      "outputs": [
        {
          "internalType": "uint256",
          "name": "",
          "type": "uint256"
        }
      ],
      "stateMutability": "view",
      "type": "function"
    },
    {
      "inputs": [],
      "name": "increment",
      "outputs": [],
      "stateMutability": "nonpayable",
      "type": "function"
    }
  ],
  "bytecode": "0x608060405234801561001057600080fd5b50610163806100206000396000f3fe608060405234801561001057600080fd5b50600436106100365760003560e01c806306661abd1461003b578063d09de08a14610059575b600080fd5b610043610063565b604051610050919061009b565b60405180910390f35b610061610069565b005b60005481565b60008081548092919061007b906100e5565b9190505550565b6000819050919050565b61009581610082565b82525050565b60006020820190506100b0600083018461008c565b92915050565b7f4e487b7100000000000000000000000000000000000000000000000000000000600052601160045260246000fd5b60006100f082610082565b91507fffffffffffffffffffffffffffffffffffffffffffffffffffffffffffffffff8203610122576101216100b6565b5b60018201905091905056fea2646970667358221220b9c309703515b9c6b8746da4cd935481677f3e63f6dc1c707322b6794ee5b19464736f6c634300080d0033",
  "immutableReferences": {},
  "source": "// SPDX-License-Identifier: MIT\r\npragma solidity >=0.4.22 <0.9.0;\r\n\r\ncontract SimpleContract {\r\n      uint public count;\r\n\r\n    function increment() public {\r\n        count++;\r\n    }\r\n}\r\n",
  "sourcePath": "C:\\REACT PROJECTS\\FullStack_react\\truffledir\\contracts\\SimpleContract.sol",
  "compiler": {
    "name": "solc",
    "version": "0.8.13+commit.abaa5c0e.Emscripten.clang"
  },
  "schemaVersion": "3.4.16",
  "updatedAt": "2024-10-13T14:09:23.213Z",
  "devdoc": {
    "kind": "dev",
    "methods": {},
    "version": 1
  },
  "userdoc": {
    "kind": "user",
    "methods": {},
    "version": 1
  }
}