{
  "contractName": "Medicine",
  "abi": [
    {
      "anonymous": false,
      "inputs": [
        {
          "indexed": true,
          "internalType": "bytes32",
          "name": "productHash",
          "type": "bytes32"
        },
        {
          "indexed": false,
          "internalType": "string",
          "name": "productName",
          "type": "string"
        },
        {
          "indexed": false,
          "internalType": "string",
          "name": "manufacturingDate",
          "type": "string"
        },
        {
          "indexed": false,
          "internalType": "string",
          "name": "expiryDate",
          "type": "string"
        },
        {
          "indexed": false,
          "internalType": "string",
          "name": "formulations",
          "type": "string"
        }
      ],
      "name": "ProductRegistered",
      "type": "event"
    },
    {
      "inputs": [
        {
          "internalType": "bytes32",
          "name": "",
          "type": "bytes32"
        }
      ],
      "name": "products",
      "outputs": [
        {
          "internalType": "string",
          "name": "productName",
          "type": "string"
        },
        {
          "internalType": "string",
          "name": "manufacturingDate",
          "type": "string"
        },
        {
          "internalType": "string",
          "name": "expiryDate",
          "type": "string"
        },
        {
          "internalType": "string",
          "name": "formulations",
          "type": "string"
        }
      ],
      "stateMutability": "view",
      "type": "function",
      "constant": true
    },
    {
      "inputs": [
        {
          "internalType": "string",
          "name": "productName",
          "type": "string"
        },
        {
          "internalType": "string",
          "name": "manufacturingDate",
          "type": "string"
        },
        {
          "internalType": "string",
          "name": "expiryDate",
          "type": "string"
        },
        {
          "internalType": "string",
          "name": "formulations",
          "type": "string"
        }
      ],
      "name": "registerProduct",
      "outputs": [],
      "stateMutability": "nonpayable",
      "type": "function"
    },
    {
      "inputs": [
        {
          "internalType": "bytes32",
          "name": "productHash",
          "type": "bytes32"
        }
      ],
      "name": "getProduct",
      "outputs": [
        {
          "internalType": "string",
          "name": "productName",
          "type": "string"
        },
        {
          "internalType": "string",
          "name": "manufacturingDate",
          "type": "string"
        },
        {
          "internalType": "string",
          "name": "expiryDate",
          "type": "string"
        },
        {
          "internalType": "string",
          "name": "formulations",
          "type": "string"
        }
      ],
      "stateMutability": "view",
      "type": "function",
      "constant": true
    }
  ],
  "bytecode": "0x608060405234801561001057600080fd5b50610f6f806100206000396000f3fe608060405234801561001057600080fd5b50600436106100415760003560e01c80633a20e9df1461004657806379054391146100795780638799d6fc146100ac575b600080fd5b610060600480360381019061005b9190610910565b6100c8565b60405161007094939291906109d6565b60405180910390f35b610093600480360381019061008e9190610910565b6103a3565b6040516100a394939291906109d6565b60405180910390f35b6100c660048036038101906100c19190610b6c565b6105f3565b005b60608060608060008060008781526020019081526020016000206040518060800160405290816000820180546100fd90610c72565b80601f016020809104026020016040519081016040528092919081815260200182805461012990610c72565b80156101765780601f1061014b57610100808354040283529160200191610176565b820191906000526020600020905b81548152906001019060200180831161015957829003601f168201915b5050505050815260200160018201805461018f90610c72565b80601f01602080910402602001604051908101604052809291908181526020018280546101bb90610c72565b80156102085780601f106101dd57610100808354040283529160200191610208565b820191906000526020600020905b8154815290600101906020018083116101eb57829003601f168201915b5050505050815260200160028201805461022190610c72565b80601f016020809104026020016040519081016040528092919081815260200182805461024d90610c72565b801561029a5780601f1061026f5761010080835404028352916020019161029a565b820191906000526020600020905b81548152906001019060200180831161027d57829003601f168201915b505050505081526020016003820180546102b390610c72565b80601f01602080910402602001604051908101604052809291908181526020018280546102df90610c72565b801561032c5780601f106103015761010080835404028352916020019161032c565b820191906000526020600020905b81548152906001019060200180831161030f57829003601f168201915b505050505081525050905060008160000151511161037f576040517f08c379a000000000000000000000000000000000000000000000000000000000815260040161037690610cef565b60405180910390fd5b80600001518160200151826040015183606001519450945094509450509193509193565b60006020528060005260406000206000915090508060000180546103c690610c72565b80601f01602080910402602001604051908101604052809291908181526020018280546103f290610c72565b801561043f5780601f106104145761010080835404028352916020019161043f565b820191906000526020600020905b81548152906001019060200180831161042257829003601f168201915b50505050509080600101805461045490610c72565b80601f016020809104026020016040519081016040528092919081815260200182805461048090610c72565b80156104cd5780601f106104a2576101008083540402835291602001916104cd565b820191906000526020600020905b8154815290600101906020018083116104b057829003601f168201915b5050505050908060020180546104e290610c72565b80601f016020809104026020016040519081016040528092919081815260200182805461050e90610c72565b801561055b5780601f106105305761010080835404028352916020019161055b565b820191906000526020600020905b81548152906001019060200180831161053e57829003601f168201915b50505050509080600301805461057090610c72565b80601f016020809104026020016040519081016040528092919081815260200182805461059c90610c72565b80156105e95780601f106105be576101008083540402835291602001916105e9565b820191906000526020600020905b8154815290600101906020018083116105cc57829003601f168201915b5050505050905084565b6000845111610637576040517f08c379a000000000000000000000000000000000000000000000000000000000815260040161062e90610d5b565b60405180910390fd5b600083511161067b576040517f08c379a000000000000000000000000000000000000000000000000000000000815260040161067290610dc7565b60405180910390fd5b60008251116106bf576040517f08c379a00000000000000000000000000000000000000000000000000000000081526004016106b690610e33565b60405180910390fd5b6000815111610703576040517f08c379a00000000000000000000000000000000000000000000000000000000081526004016106fa90610e9f565b60405180910390fd5b60008484848460405160200161071c9493929190610efb565b6040516020818303038152906040528051906020012090506040518060800160405280868152602001858152602001848152602001838152506000808381526020019081526020016000206000820151816000019080519060200190610783929190610823565b5060208201518160010190805190602001906107a0929190610823565b5060408201518160020190805190602001906107bd929190610823565b5060608201518160030190805190602001906107da929190610823565b50905050807fecab2dd7866f6f8942d9d7d47d57673689e675a864b11747bfea4d23f0d5d5028686868660405161081494939291906109d6565b60405180910390a25050505050565b82805461082f90610c72565b90600052602060002090601f0160209004810192826108515760008555610898565b82601f1061086a57805160ff1916838001178555610898565b82800160010185558215610898579182015b8281111561089757825182559160200191906001019061087c565b5b5090506108a591906108a9565b5090565b5b808211156108c25760008160009055506001016108aa565b5090565b6000604051905090565b600080fd5b600080fd5b6000819050919050565b6108ed816108da565b81146108f857600080fd5b50565b60008135905061090a816108e4565b92915050565b600060208284031215610926576109256108d0565b5b6000610934848285016108fb565b91505092915050565b600081519050919050565b600082825260208201905092915050565b60005b8381101561097757808201518184015260208101905061095c565b83811115610986576000848401525b50505050565b6000601f19601f8301169050919050565b60006109a88261093d565b6109b28185610948565b93506109c2818560208601610959565b6109cb8161098c565b840191505092915050565b600060808201905081810360008301526109f0818761099d565b90508181036020830152610a04818661099d565b90508181036040830152610a18818561099d565b90508181036060830152610a2c818461099d565b905095945050505050565b600080fd5b600080fd5b7f4e487b7100000000000000000000000000000000000000000000000000000000600052604160045260246000fd5b610a798261098c565b810181811067ffffffffffffffff82111715610a9857610a97610a41565b5b80604052505050565b6000610aab6108c6565b9050610ab78282610a70565b919050565b600067ffffffffffffffff821115610ad757610ad6610a41565b5b610ae08261098c565b9050602081019050919050565b82818337600083830152505050565b6000610b0f610b0a84610abc565b610aa1565b905082815260208101848484011115610b2b57610b2a610a3c565b5b610b36848285610aed565b509392505050565b600082601f830112610b5357610b52610a37565b5b8135610b63848260208601610afc565b91505092915050565b60008060008060808587031215610b8657610b856108d0565b5b600085013567ffffffffffffffff811115610ba457610ba36108d5565b5b610bb087828801610b3e565b945050602085013567ffffffffffffffff811115610bd157610bd06108d5565b5b610bdd87828801610b3e565b935050604085013567ffffffffffffffff811115610bfe57610bfd6108d5565b5b610c0a87828801610b3e565b925050606085013567ffffffffffffffff811115610c2b57610c2a6108d5565b5b610c3787828801610b3e565b91505092959194509250565b7f4e487b7100000000000000000000000000000000000000000000000000000000600052602260045260246000fd5b60006002820490506001821680610c8a57607f821691505b602082108103610c9d57610c9c610c43565b5b50919050565b7f50726f6475637420646f6573206e6f7420657869737400000000000000000000600082015250565b6000610cd9601683610948565b9150610ce482610ca3565b602082019050919050565b60006020820190508181036000830152610d0881610ccc565b9050919050565b7f50726f64756374206e616d652069732072657175697265640000000000000000600082015250565b6000610d45601883610948565b9150610d5082610d0f565b602082019050919050565b60006020820190508181036000830152610d7481610d38565b9050919050565b7f4d616e75666163747572696e6720646174652069732072657175697265640000600082015250565b6000610db1601e83610948565b9150610dbc82610d7b565b602082019050919050565b60006020820190508181036000830152610de081610da4565b9050919050565b7f4578706972792064617465206973207265717569726564000000000000000000600082015250565b6000610e1d601783610948565b9150610e2882610de7565b602082019050919050565b60006020820190508181036000830152610e4c81610e10565b9050919050565b7f466f726d756c6174696f6e732061726520726571756972656400000000000000600082015250565b6000610e89601983610948565b9150610e9482610e53565b602082019050919050565b60006020820190508181036000830152610eb881610e7c565b9050919050565b600081905092915050565b6000610ed58261093d565b610edf8185610ebf565b9350610eef818560208601610959565b80840191505092915050565b6000610f078287610eca565b9150610f138286610eca565b9150610f1f8285610eca565b9150610f2b8284610eca565b91508190509594505050505056fea264697066735822122056a4e994b0442c531b8392de6ae2cff40e320af1a8814052873a68df3e93a25e64736f6c634300080d0033",
  "immutableReferences": {},
  "source": "// SPDX-License-Identifier: MIT\r\npragma solidity >=0.4.22 <0.9.0;\r\n\r\ncontract Medicine {\r\n    struct Product {\r\n        string productName;\r\n        string manufacturingDate;\r\n        string expiryDate;\r\n        string formulations;\r\n    }\r\n\r\n    mapping(bytes32 => Product) public products;\r\n\r\n    // Event to notify product registration\r\n    event ProductRegistered(\r\n        bytes32 indexed productHash,\r\n        string productName,\r\n        string manufacturingDate,\r\n        string expiryDate,\r\n        string formulations\r\n    );\r\n\r\n    function registerProduct(\r\n        string memory productName,\r\n        string memory manufacturingDate,\r\n        string memory expiryDate,\r\n        string memory formulations\r\n    ) public {\r\n        // Ensure that product details are not empty\r\n        require(bytes(productName).length > 0, \"Product name is required\");\r\n        require(bytes(manufacturingDate).length > 0, \"Manufacturing date is required\");\r\n        require(bytes(expiryDate).length > 0, \"Expiry date is required\");\r\n        require(bytes(formulations).length > 0, \"Formulations are required\");\r\n\r\n        // Generate a unique hash for the product\r\n        bytes32 productHash = keccak256(abi.encodePacked(productName, manufacturingDate, expiryDate, formulations));\r\n        \r\n        // Store the product data in the mapping\r\n        products[productHash] = Product(productName, manufacturingDate, expiryDate, formulations);\r\n\r\n        // Emit event for product registration\r\n        emit ProductRegistered(productHash, productName, manufacturingDate, expiryDate, formulations);\r\n    }\r\n\r\n    // Function to retrieve product data\r\n    function getProduct(bytes32 productHash) public view returns (\r\n        string memory productName,\r\n        string memory manufacturingDate,\r\n        string memory expiryDate,\r\n        string memory formulations\r\n    ) {\r\n        Product memory product = products[productHash];\r\n        require(bytes(product.productName).length > 0, \"Product does not exist\");\r\n        return (\r\n            product.productName,\r\n            product.manufacturingDate,\r\n            product.expiryDate,\r\n            product.formulations\r\n        );\r\n    }\r\n}\r\n",
  "sourcePath": "C:\\REACT PROJECTS\\FullStack_react\\truffledir\\contracts\\Medicine.sol",
  "compiler": {
    "name": "solc",
    "version": "0.8.13+commit.abaa5c0e.Emscripten.clang"
  },
  "schemaVersion": "3.4.16",
  "updatedAt": "2024-10-12T05:54:44.684Z",
  "networkType": "ethereum",
  "devdoc": {
    "kind": "dev",
    "methods": {},
    "version": 1
  },
  "userdoc": {
    "kind": "user",
    "methods": {},
    "version": 1
  }
}